{
    "abi": [
        {
            "type": "constructor",
            "inputs": [
                {
                    "name": "name_",
                    "type": "string",
                    "internalType": "string"
                },
                {
                    "name": "symbol_",
                    "type": "string",
                    "internalType": "string"
                },
                {
                    "name": "initialOwner",
                    "type": "address",
                    "internalType": "address"
                }
            ],
            "stateMutability": "nonpayable"
        },
        {
            "type": "function",
            "name": "addToWhitelist",
            "inputs": [
                {
                    "name": "account",
                    "type": "address",
                    "internalType": "address"
                }
            ],
            "outputs": [],
            "stateMutability": "nonpayable"
        },
        {
            "type": "function",
            "name": "allowance",
            "inputs": [
                {
                    "name": "owner",
                    "type": "address",
                    "internalType": "address"
                },
                {
                    "name": "spender",
                    "type": "address",
                    "internalType": "address"
                }
            ],
            "outputs": [
                {
                    "name": "",
                    "type": "uint256",
                    "internalType": "uint256"
                }
            ],
            "stateMutability": "view"
        },
        {
            "type": "function",
            "name": "approve",
            "inputs": [
                {
                    "name": "spender",
                    "type": "address",
                    "internalType": "address"
                },
                {
                    "name": "value",
                    "type": "uint256",
                    "internalType": "uint256"
                }
            ],
            "outputs": [
                {
                    "name": "",
                    "type": "bool",
                    "internalType": "bool"
                }
            ],
            "stateMutability": "nonpayable"
        },
        {
            "type": "function",
            "name": "balanceOf",
            "inputs": [
                {
                    "name": "account",
                    "type": "address",
                    "internalType": "address"
                }
            ],
            "outputs": [
                {
                    "name": "",
                    "type": "uint256",
                    "internalType": "uint256"
                }
            ],
            "stateMutability": "view"
        },
        {
            "type": "function",
            "name": "batchTransfer",
            "inputs": [
                {
                    "name": "recipients",
                    "type": "address[]",
                    "internalType": "address[]"
                },
                {
                    "name": "amounts",
                    "type": "uint256[]",
                    "internalType": "uint256[]"
                }
            ],
            "outputs": [],
            "stateMutability": "nonpayable"
        },
        {
            "type": "function",
            "name": "burn",
            "inputs": [
                {
                    "name": "amount",
                    "type": "uint256",
                    "internalType": "uint256"
                }
            ],
            "outputs": [],
            "stateMutability": "nonpayable"
        },
        {
            "type": "function",
            "name": "contractInfo",
            "inputs": [],
            "outputs": [
                {
                    "name": "contractName",
                    "type": "string",
                    "internalType": "string"
                },
                {
                    "name": "contractSymbol",
                    "type": "string",
                    "internalType": "string"
                },
                {
                    "name": "contractDecimals",
                    "type": "uint8",
                    "internalType": "uint8"
                },
                {
                    "name": "contractOwner",
                    "type": "address",
                    "internalType": "address"
                },
                {
                    "name": "isPaused",
                    "type": "bool",
                    "internalType": "bool"
                },
                {
                    "name": "totalTokenSupply",
                    "type": "uint256",
                    "internalType": "uint256"
                },
                {
                    "name": "contractVersion",
                    "type": "string",
                    "internalType": "string"
                }
            ],
            "stateMutability": "view"
        },
        {
            "type": "function",
            "name": "decimals",
            "inputs": [],
            "outputs": [
                {
                    "name": "",
                    "type": "uint8",
                    "internalType": "uint8"
                }
            ],
            "stateMutability": "view"
        },
        {
            "type": "function",
            "name": "emergencyExtract",
            "inputs": [
                {
                    "name": "tokenAddress",
                    "type": "address",
                    "internalType": "address"
                },
                {
                    "name": "amount",
                    "type": "uint256",
                    "internalType": "uint256"
                }
            ],
            "outputs": [],
            "stateMutability": "nonpayable"
        },
        {
            "type": "function",
            "name": "getMaxBatchSize",
            "inputs": [],
            "outputs": [
                {
                    "name": "",
                    "type": "uint256",
                    "internalType": "uint256"
                }
            ],
            "stateMutability": "pure"
        },
        {
            "type": "function",
            "name": "isUpgradable",
            "inputs": [],
            "outputs": [
                {
                    "name": "",
                    "type": "bool",
                    "internalType": "bool"
                }
            ],
            "stateMutability": "pure"
        },
        {
            "type": "function",
            "name": "isWhitelisted",
            "inputs": [
                {
                    "name": "account",
                    "type": "address",
                    "internalType": "address"
                }
            ],
            "outputs": [
                {
                    "name": "",
                    "type": "bool",
                    "internalType": "bool"
                }
            ],
            "stateMutability": "view"
        },
        {
            "type": "function",
            "name": "mint",
            "inputs": [
                {
                    "name": "to",
                    "type": "address",
                    "internalType": "address"
                },
                {
                    "name": "amount",
                    "type": "uint256",
                    "internalType": "uint256"
                }
            ],
            "outputs": [],
            "stateMutability": "nonpayable"
        },
        {
            "type": "function",
            "name": "name",
            "inputs": [],
            "outputs": [
                {
                    "name": "",
                    "type": "string",
                    "internalType": "string"
                }
            ],
            "stateMutability": "view"
        },
        {
            "type": "function",
            "name": "owner",
            "inputs": [],
            "outputs": [
                {
                    "name": "",
                    "type": "address",
                    "internalType": "address"
                }
            ],
            "stateMutability": "view"
        },
        {
            "type": "function",
            "name": "pause",
            "inputs": [],
            "outputs": [],
            "stateMutability": "nonpayable"
        },
        {
            "type": "function",
            "name": "paused",
            "inputs": [],
            "outputs": [
                {
                    "name": "",
                    "type": "bool",
                    "internalType": "bool"
                }
            ],
            "stateMutability": "view"
        },
        {
            "type": "function",
            "name": "removeFromWhitelist",
            "inputs": [
                {
                    "name": "account",
                    "type": "address",
                    "internalType": "address"
                }
            ],
            "outputs": [],
            "stateMutability": "nonpayable"
        },
        {
            "type": "function",
            "name": "renounceOwnership",
            "inputs": [],
            "outputs": [],
            "stateMutability": "nonpayable"
        },
        {
            "type": "function",
            "name": "symbol",
            "inputs": [],
            "outputs": [
                {
                    "name": "",
                    "type": "string",
                    "internalType": "string"
                }
            ],
            "stateMutability": "view"
        },
        {
            "type": "function",
            "name": "totalSupply",
            "inputs": [],
            "outputs": [
                {
                    "name": "",
                    "type": "uint256",
                    "internalType": "uint256"
                }
            ],
            "stateMutability": "view"
        },
        {
            "type": "function",
            "name": "transfer",
            "inputs": [
                {
                    "name": "to",
                    "type": "address",
                    "internalType": "address"
                },
                {
                    "name": "value",
                    "type": "uint256",
                    "internalType": "uint256"
                }
            ],
            "outputs": [
                {
                    "name": "",
                    "type": "bool",
                    "internalType": "bool"
                }
            ],
            "stateMutability": "nonpayable"
        },
        {
            "type": "function",
            "name": "transferFrom",
            "inputs": [
                {
                    "name": "from",
                    "type": "address",
                    "internalType": "address"
                },
                {
                    "name": "to",
                    "type": "address",
                    "internalType": "address"
                },
                {
                    "name": "value",
                    "type": "uint256",
                    "internalType": "uint256"
                }
            ],
            "outputs": [
                {
                    "name": "",
                    "type": "bool",
                    "internalType": "bool"
                }
            ],
            "stateMutability": "nonpayable"
        },
        {
            "type": "function",
            "name": "transferOwnership",
            "inputs": [
                {
                    "name": "newOwner",
                    "type": "address",
                    "internalType": "address"
                }
            ],
            "outputs": [],
            "stateMutability": "nonpayable"
        },
        {
            "type": "function",
            "name": "unpause",
            "inputs": [],
            "outputs": [],
            "stateMutability": "nonpayable"
        },
        {
            "type": "function",
            "name": "version",
            "inputs": [],
            "outputs": [
                {
                    "name": "",
                    "type": "string",
                    "internalType": "string"
                }
            ],
            "stateMutability": "pure"
        },
        {
            "type": "event",
            "name": "Approval",
            "inputs": [
                {
                    "name": "owner",
                    "type": "address",
                    "indexed": true,
                    "internalType": "address"
                },
                {
                    "name": "spender",
                    "type": "address",
                    "indexed": true,
                    "internalType": "address"
                },
                {
                    "name": "value",
                    "type": "uint256",
                    "indexed": false,
                    "internalType": "uint256"
                }
            ],
            "anonymous": false
        },
        {
            "type": "event",
            "name": "BatchTransferExecuted",
            "inputs": [
                {
                    "name": "from",
                    "type": "address",
                    "indexed": true,
                    "internalType": "address"
                },
                {
                    "name": "recipients",
                    "type": "address[]",
                    "indexed": false,
                    "internalType": "address[]"
                },
                {
                    "name": "amounts",
                    "type": "uint256[]",
                    "indexed": false,
                    "internalType": "uint256[]"
                },
                {
                    "name": "batchId",
                    "type": "bytes32",
                    "indexed": true,
                    "internalType": "bytes32"
                }
            ],
            "anonymous": false
        },
        {
            "type": "event",
            "name": "OwnershipTransferred",
            "inputs": [
                {
                    "name": "previousOwner",
                    "type": "address",
                    "indexed": true,
                    "internalType": "address"
                },
                {
                    "name": "newOwner",
                    "type": "address",
                    "indexed": true,
                    "internalType": "address"
                }
            ],
            "anonymous": false
        },
        {
            "type": "event",
            "name": "Paused",
            "inputs": [
                {
                    "name": "account",
                    "type": "address",
                    "indexed": false,
                    "internalType": "address"
                }
            ],
            "anonymous": false
        },
        {
            "type": "event",
            "name": "TokensBurned",
            "inputs": [
                {
                    "name": "from",
                    "type": "address",
                    "indexed": true,
                    "internalType": "address"
                },
                {
                    "name": "amount",
                    "type": "uint256",
                    "indexed": false,
                    "internalType": "uint256"
                },
                {
                    "name": "txId",
                    "type": "bytes32",
                    "indexed": true,
                    "internalType": "bytes32"
                }
            ],
            "anonymous": false
        },
        {
            "type": "event",
            "name": "TokensMinted",
            "inputs": [
                {
                    "name": "to",
                    "type": "address",
                    "indexed": true,
                    "internalType": "address"
                },
                {
                    "name": "amount",
                    "type": "uint256",
                    "indexed": false,
                    "internalType": "uint256"
                },
                {
                    "name": "txId",
                    "type": "bytes32",
                    "indexed": true,
                    "internalType": "bytes32"
                }
            ],
            "anonymous": false
        },
        {
            "type": "event",
            "name": "Transfer",
            "inputs": [
                {
                    "name": "from",
                    "type": "address",
                    "indexed": true,
                    "internalType": "address"
                },
                {
                    "name": "to",
                    "type": "address",
                    "indexed": true,
                    "internalType": "address"
                },
                {
                    "name": "value",
                    "type": "uint256",
                    "indexed": false,
                    "internalType": "uint256"
                }
            ],
            "anonymous": false
        },
        {
            "type": "event",
            "name": "Unpaused",
            "inputs": [
                {
                    "name": "account",
                    "type": "address",
                    "indexed": false,
                    "internalType": "address"
                }
            ],
            "anonymous": false
        },
        {
            "type": "event",
            "name": "WhitelistUpdated",
            "inputs": [
                {
                    "name": "account",
                    "type": "address",
                    "indexed": true,
                    "internalType": "address"
                },
                {
                    "name": "status",
                    "type": "bool",
                    "indexed": false,
                    "internalType": "bool"
                }
            ],
            "anonymous": false
        },
        {
            "type": "error",
            "name": "ERC20InsufficientAllowance",
            "inputs": [
                {
                    "name": "spender",
                    "type": "address",
                    "internalType": "address"
                },
                {
                    "name": "allowance",
                    "type": "uint256",
                    "internalType": "uint256"
                },
                {
                    "name": "needed",
                    "type": "uint256",
                    "internalType": "uint256"
                }
            ]
        },
        {
            "type": "error",
            "name": "ERC20InsufficientBalance",
            "inputs": [
                {
                    "name": "sender",
                    "type": "address",
                    "internalType": "address"
                },
                {
                    "name": "balance",
                    "type": "uint256",
                    "internalType": "uint256"
                },
                {
                    "name": "needed",
                    "type": "uint256",
                    "internalType": "uint256"
                }
            ]
        },
        {
            "type": "error",
            "name": "ERC20InvalidApprover",
            "inputs": [
                {
                    "name": "approver",
                    "type": "address",
                    "internalType": "address"
                }
            ]
        },
        {
            "type": "error",
            "name": "ERC20InvalidReceiver",
            "inputs": [
                {
                    "name": "receiver",
                    "type": "address",
                    "internalType": "address"
                }
            ]
        },
        {
            "type": "error",
            "name": "ERC20InvalidSender",
            "inputs": [
                {
                    "name": "sender",
                    "type": "address",
                    "internalType": "address"
                }
            ]
        },
        {
            "type": "error",
            "name": "ERC20InvalidSpender",
            "inputs": [
                {
                    "name": "spender",
                    "type": "address",
                    "internalType": "address"
                }
            ]
        },
        {
            "type": "error",
            "name": "EnforcedPause",
            "inputs": []
        },
        {
            "type": "error",
            "name": "ExpectedPause",
            "inputs": []
        },
        {
            "type": "error",
            "name": "OwnableInvalidOwner",
            "inputs": [
                {
                    "name": "owner",
                    "type": "address",
                    "internalType": "address"
                }
            ]
        },
        {
            "type": "error",
            "name": "OwnableUnauthorizedAccount",
            "inputs": [
                {
                    "name": "account",
                    "type": "address",
                    "internalType": "address"
                }
            ]
        },
        {
            "type": "error",
            "name": "ReentrancyGuardReentrantCall",
            "inputs": []
        }
    ],
    "bytecode": {
        "object": "0x608060405234801562000010575f80fd5b5060405162001f4f38038062001f4f833981016040819052620000339162000380565b808383600362000044838262000492565b50600462000053828262000492565b5050506001600160a01b0381166200008557604051631e4fbdf760e01b81525f60048201526024015b60405180910390fd5b6200009081620000b5565b506001600655620000ac8169d3c21bcecceda100000062000106565b50505062000580565b600580546001600160a01b038381166001600160a01b0319831681179093556040519116919082907f8be0079c531659141344cd1fd0a4f28419497f9722a3daafe3b4186f6b6457e0905f90a35050565b6001600160a01b038216620001315760405163ec442f0560e01b81525f60048201526024016200007c565b6200013e5f838362000142565b5050565b6200014c6200015e565b6200015983838362000193565b505050565b62000172600554600160a01b900460ff1690565b15620001915760405163d93c066560e01b815260040160405180910390fd5b565b6001600160a01b038316620001c1578060025f828254620001b591906200055a565b90915550620002339050565b6001600160a01b0383165f9081526020819052604090205481811015620002155760405163391434e360e21b81526001600160a01b038516600482015260248101829052604481018390526064016200007c565b6001600160a01b0384165f9081526020819052604090209082900390555b6001600160a01b03821662000251576002805482900390556200026f565b6001600160a01b0382165f9081526020819052604090208054820190555b816001600160a01b0316836001600160a01b03167fddf252ad1be2c89b69c2b068fc378daa952ba7f163c4a11628f55a4df523b3ef83604051620002b591815260200190565b60405180910390a3505050565b634e487b7160e01b5f52604160045260245ffd5b5f82601f830112620002e6575f80fd5b81516001600160401b0380821115620003035762000303620002c2565b604051601f8301601f19908116603f011681019082821181831017156200032e576200032e620002c2565b816040528381526020925086838588010111156200034a575f80fd5b5f91505b838210156200036d57858201830151818301840152908201906200034e565b5f93810190920192909252949350505050565b5f805f6060848603121562000393575f80fd5b83516001600160401b0380821115620003aa575f80fd5b620003b887838801620002d6565b94506020860151915080821115620003ce575f80fd5b50620003dd86828701620002d6565b604086015190935090506001600160a01b0381168114620003fc575f80fd5b809150509250925092565b600181811c908216806200041c57607f821691505b6020821081036200043b57634e487b7160e01b5f52602260045260245ffd5b50919050565b601f82111562000159575f81815260208120601f850160051c81016020861015620004695750805b601f850160051c820191505b818110156200048a5782815560010162000475565b505050505050565b81516001600160401b03811115620004ae57620004ae620002c2565b620004c681620004bf845462000407565b8462000441565b602080601f831160018114620004fc575f8415620004e45750858301515b5f19600386901b1c1916600185901b1785556200048a565b5f85815260208120601f198616915b828110156200052c578886015182559484019460019091019084016200050b565b50858210156200054a57878501515f19600388901b60f8161c191681555b5050505050600190811b01905550565b808201808211156200057a57634e487b7160e01b5f52601160045260245ffd5b92915050565b6119c1806200058e5f395ff3fe608060405234801561000f575f80fd5b5060043610610187575f3560e01c806370a08231116100d957806395d89b4111610093578063dd62ed3e1161006e578063dd62ed3e14610363578063e43252d71461039b578063e7c00f6e146103ae578063f2fde38b146103b5575f80fd5b806395d89b4114610335578063a9059cbb1461033d578063be67cdf214610350575f80fd5b806370a08231146102bc578063715018a6146102e45780638456cb59146102ec57806388d695b2146102f45780638ab1d681146103075780638da5cb5b1461031a575f80fd5b80633af32abf1161014457806342966c681161011f57806342966c68146102635780635479d9401461027657806354fd4d501461027c5780635c975abb146102aa575f80fd5b80633af32abf1461021b5780633f4ba83a1461024657806340c10f1914610250575f80fd5b806306fdde031461018b578063095ea7b3146101a957806315c43aaf146101cc57806318160ddd146101e757806323b872dd146101f9578063313ce5671461020c575b5f80fd5b6101936103c8565b6040516101a09190611654565b60405180910390f35b6101bc6101b7366004611688565b610458565b60405190151581526020016101a0565b6101d4610471565b6040516101a097969594939291906116b0565b6002545b6040519081526020016101a0565b6101bc61020736600461171d565b6104e7565b604051601281526020016101a0565b6101bc610229366004611756565b6001600160a01b03165f9081526007602052604090205460ff1690565b61024e61050a565b005b61024e61025e366004611688565b61051c565b61024e61027136600461176f565b6106ac565b5f6101bc565b604080518082019091526012815271191718171816a7b832b72d32b83832b634b760711b6020820152610193565b600554600160a01b900460ff166101bc565b6101eb6102ca366004611756565b6001600160a01b03165f9081526020819052604090205490565b61024e61082b565b61024e61083c565b61024e6103023660046117ce565b61084c565b61024e610315366004611756565b610bf5565b6005546040516001600160a01b0390911681526020016101a0565b610193610d10565b6101bc61034b366004611688565b610d1f565b61024e61035e366004611688565b610d2c565b6101eb610371366004611835565b6001600160a01b039182165f90815260016020908152604080832093909416825291909152205490565b61024e6103a9366004611756565b610fcc565b60646101eb565b61024e6103c3366004611756565b6110f4565b6060600380546103d790611866565b80601f016020809104026020016040519081016040528092919081815260200182805461040390611866565b801561044e5780601f106104255761010080835404028352916020019161044e565b820191905f5260205f20905b81548152906001019060200180831161043157829003601f168201915b5050505050905090565b5f3361046581858561112e565b60019150505b92915050565b6060805f805f8060606104826103c8565b61048a610d10565b60126005546001600160a01b0316600554600160a01b900460ff16600254604080518082019091526012815271191718171816a7b832b72d32b83832b634b760711b6020820152959d949c50929a50909850965094509092509050565b5f336104f485828561113b565b6104ff8585856111b1565b506001949350505050565b61051261120e565b61051a61123b565b565b61052461120e565b61052c611290565b6105346112bb565b6001600160a01b03821661058f5760405162461bcd60e51b815260206004820152601f60248201527f52574132303a206d696e7420746f20746865207a65726f20616464726573730060448201526064015b60405180910390fd5b5f81116105ea5760405162461bcd60e51b815260206004820152602360248201527f52574132303a206d696e7420616d6f756e74206d75737420626520706f73697460448201526269766560e81b6064820152608401610586565b6105f482826112e5565b5f4283836106036001436118b2565b6040805160208101959095526001600160601b0319606094851b81169186019190915260548501929092524060748401523390911b16609482015260a80160405160208183030381529060405280519060200120905080836001600160a01b03167f7369d801113c713520ca653010d32c6bcd6778f0ffb3df0bc9efb8d85b687e448460405161069591815260200190565b60405180910390a3506106a86001600655565b5050565b6106b4611290565b6106bc6112bb565b5f81116107175760405162461bcd60e51b815260206004820152602360248201527f52574132303a206275726e20616d6f756e74206d75737420626520706f73697460448201526269766560e81b6064820152608401610586565b335f908152602081905260409020548111156107805760405162461bcd60e51b815260206004820152602260248201527f52574132303a206275726e20616d6f756e7420657863656564732062616c616e604482015261636560f01b6064820152608401610586565b61078a3382611319565b5f4233836107996001436118b2565b406040516020016107d0949392919093845260609290921b6001600160601b03191660208401526034830152605482015260740190565b60408051601f198184030181529082905280516020918201208483529250829133917f52916471973ae53f679d702015168c0a34628d9d95a48de6bd2093661e39a7c3910160405180910390a3506108286001600655565b50565b61083361120e565b61051a5f61134d565b61084461120e565b61051a61139e565b610854611290565b61085c6112bb565b8281146108ab5760405162461bcd60e51b815260206004820152601d60248201527f52574132303a20617272617973206c656e677468206d69736d617463680000006044820152606401610586565b826108ee5760405162461bcd60e51b815260206004820152601360248201527252574132303a20656d7074792061727261797360681b6044820152606401610586565b606483111561093f5760405162461bcd60e51b815260206004820152601b60248201527f52574132303a2062617463682073697a6520746f6f206c6172676500000000006044820152606401610586565b335f805b838110156109ea575f85858381811061095e5761095e6118c5565b90506020020135116109b25760405162461bcd60e51b815260206004820152601e60248201527f52574132303a20616d6f756e74206d75737420626520706f73697469766500006044820152606401610586565b8484828181106109c4576109c46118c5565b90506020020135826109d691906118d9565b9150806109e2816118ec565b915050610943565b5080610a0a836001600160a01b03165f9081526020819052604090205490565b1015610a585760405162461bcd60e51b815260206004820152601b60248201527f52574132303a20696e73756666696369656e742062616c616e636500000000006044820152606401610586565b5f428387610a676001436118b2565b40604051602001610a9e949392919093845260609290921b6001600160601b03191660208401526034830152605482015260740190565b6040516020818303038152906040528051906020012090505f5b86811015610b99575f888883818110610ad357610ad36118c5565b9050602002016020810190610ae89190611756565b6001600160a01b031603610b3e5760405162461bcd60e51b815260206004820152601860248201527f52574132303a20696e76616c696420726563697069656e7400000000000000006044820152606401610586565b610b8784898984818110610b5457610b546118c5565b9050602002016020810190610b699190611756565b888885818110610b7b57610b7b6118c5565b905060200201356111b1565b80610b91816118ec565b915050610ab8565b5080836001600160a01b03167f2536bf16394f0c5830768512b369d2c1d2850c10cb43021e19b81b13de04e45989898989604051610bda9493929190611904565b60405180910390a3505050610bef6001600655565b50505050565b610bfd61120e565b610c05611290565b6001600160a01b038116610c545760405162461bcd60e51b815260206004820152601660248201527552574132303a20696e76616c6964206164647265737360501b6044820152606401610586565b6001600160a01b0381165f9081526007602052604090205460ff16610cbb5760405162461bcd60e51b815260206004820152601e60248201527f52574132303a206163636f756e74206e6f742077686974656c697374656400006044820152606401610586565b6001600160a01b0381165f818152600760209081526040808320805460ff19169055519182527ff93f9a76c1bf3444d22400a00cb9fe990e6abe9dbb333fda48859cfee864543d91015b60405180910390a250565b6060600480546103d790611866565b5f336104658185856111b1565b610d3461120e565b610d3c6113e1565b6001600160a01b038216610d925760405162461bcd60e51b815260206004820152601c60248201527f52574132303a20696e76616c696420746f6b656e2061646472657373000000006044820152606401610586565b306001600160a01b03831603610e2857305f90815260208190526040902054811115610e0c5760405162461bcd60e51b8152602060048201526024808201527f52574132303a20696e73756666696369656e7420636f6e74726163742062616c604482015263616e636560e01b6064820152608401610586565b6106a830610e226005546001600160a01b031690565b836111b1565b6040516370a0823160e01b8152306004820152829082906001600160a01b038316906370a0823190602401602060405180830381865afa158015610e6e573d5f803e3d5ffd5b505050506040513d601f19601f82011682018060405250810190610e92919061197e565b1015610ef35760405162461bcd60e51b815260206004820152602a60248201527f52574132303a20696e73756666696369656e742065787465726e616c20746f6b604482015269656e2062616c616e636560b01b6064820152608401610586565b806001600160a01b031663a9059cbb610f146005546001600160a01b031690565b6040516001600160e01b031960e084901b1681526001600160a01b039091166004820152602481018590526044016020604051808303815f875af1158015610f5e573d5f803e3d5ffd5b505050506040513d601f19601f82011682018060405250810190610f829190611995565b610fc75760405162461bcd60e51b81526020600482015260166024820152751495d04c8c0e881d1c985b9cd9995c8819985a5b195960521b6044820152606401610586565b505050565b610fd461120e565b610fdc611290565b6001600160a01b03811661102b5760405162461bcd60e51b815260206004820152601660248201527552574132303a20696e76616c6964206164647265737360501b6044820152606401610586565b6001600160a01b0381165f9081526007602052604090205460ff161561109e5760405162461bcd60e51b815260206004820152602260248201527f52574132303a206163636f756e7420616c72656164792077686974656c697374604482015261195960f21b6064820152608401610586565b6001600160a01b0381165f81815260076020908152604091829020805460ff1916600190811790915591519182527ff93f9a76c1bf3444d22400a00cb9fe990e6abe9dbb333fda48859cfee864543d9101610d05565b6110fc61120e565b6001600160a01b03811661112557604051631e4fbdf760e01b81525f6004820152602401610586565b6108288161134d565b610fc7838383600161140b565b6001600160a01b038381165f908152600160209081526040808320938616835292905220545f19811015610bef57818110156111a357604051637dc7a0d960e11b81526001600160a01b03841660048201526024810182905260448101839052606401610586565b610bef84848484035f61140b565b6001600160a01b0383166111da57604051634b637e8f60e11b81525f6004820152602401610586565b6001600160a01b0382166112035760405163ec442f0560e01b81525f6004820152602401610586565b610fc78383836114dd565b6005546001600160a01b0316331461051a5760405163118cdaa760e01b8152336004820152602401610586565b6112436113e1565b6005805460ff60a01b191690557f5db9ee0a495bf2e6ff9c91a7834c1ba4fdd244a5e8aa4e537bd38aeae4b073aa335b6040516001600160a01b03909116815260200160405180910390a1565b600554600160a01b900460ff161561051a5760405163d93c066560e01b815260040160405180910390fd5b6002600654036112de57604051633ee5aeb560e01b815260040160405180910390fd5b6002600655565b6001600160a01b03821661130e5760405163ec442f0560e01b81525f6004820152602401610586565b6106a85f83836114dd565b6001600160a01b03821661134257604051634b637e8f60e11b81525f6004820152602401610586565b6106a8825f836114dd565b600580546001600160a01b038381166001600160a01b0319831681179093556040519116919082907f8be0079c531659141344cd1fd0a4f28419497f9722a3daafe3b4186f6b6457e0905f90a35050565b6113a6611290565b6005805460ff60a01b1916600160a01b1790557f62e78cea01bee320cd4e420270b5ea74000d11b0c9f74754ebdbfc544b05a2586112733390565b600554600160a01b900460ff1661051a57604051638dfc202b60e01b815260040160405180910390fd5b6001600160a01b0384166114345760405163e602df0560e01b81525f6004820152602401610586565b6001600160a01b03831661145d57604051634a1406b160e11b81525f6004820152602401610586565b6001600160a01b038085165f9081526001602090815260408083209387168352929052208290558015610bef57826001600160a01b0316846001600160a01b03167f8c5be1e5ebec7d5bd14f71427d1e84f3dd0314c0f7b2291e5b200ac8c7c3b925846040516114cf91815260200190565b60405180910390a350505050565b6114e5611290565b610fc78383836001600160a01b038316611515578060025f82825461150a91906118d9565b909155506115859050565b6001600160a01b0383165f90815260208190526040902054818110156115675760405163391434e360e21b81526001600160a01b03851660048201526024810182905260448101839052606401610586565b6001600160a01b0384165f9081526020819052604090209082900390555b6001600160a01b0382166115a1576002805482900390556115bf565b6001600160a01b0382165f9081526020819052604090208054820190555b816001600160a01b0316836001600160a01b03167fddf252ad1be2c89b69c2b068fc378daa952ba7f163c4a11628f55a4df523b3ef8360405161160491815260200190565b60405180910390a3505050565b5f81518084525f5b8181101561163557602081850181015186830182015201611619565b505f602082860101526020601f19601f83011685010191505092915050565b602081525f6116666020830184611611565b9392505050565b80356001600160a01b0381168114611683575f80fd5b919050565b5f8060408385031215611699575f80fd5b6116a28361166d565b946020939093013593505050565b60e081525f6116c260e083018a611611565b82810360208401526116d4818a611611565b60ff891660408501526001600160a01b0388166060850152861515608085015260a0840186905283810360c0850152905061170f8185611611565b9a9950505050505050505050565b5f805f6060848603121561172f575f80fd5b6117388461166d565b92506117466020850161166d565b9150604084013590509250925092565b5f60208284031215611766575f80fd5b6116668261166d565b5f6020828403121561177f575f80fd5b5035919050565b5f8083601f840112611796575f80fd5b50813567ffffffffffffffff8111156117ad575f80fd5b6020830191508360208260051b85010111156117c7575f80fd5b9250929050565b5f805f80604085870312156117e1575f80fd5b843567ffffffffffffffff808211156117f8575f80fd5b61180488838901611786565b9096509450602087013591508082111561181c575f80fd5b5061182987828801611786565b95989497509550505050565b5f8060408385031215611846575f80fd5b61184f8361166d565b915061185d6020840161166d565b90509250929050565b600181811c9082168061187a57607f821691505b60208210810361189857634e487b7160e01b5f52602260045260245ffd5b50919050565b634e487b7160e01b5f52601160045260245ffd5b8181038181111561046b5761046b61189e565b634e487b7160e01b5f52603260045260245ffd5b8082018082111561046b5761046b61189e565b5f600182016118fd576118fd61189e565b5060010190565b604080825281018490525f8560608301825b87811015611944576001600160a01b0361192f8461166d565b16825260209283019290910190600101611916565b5083810360208501528481526001600160fb1b03851115611963575f80fd5b8460051b915081866020830137016020019695505050505050565b5f6020828403121561198e575f80fd5b5051919050565b5f602082840312156119a5575f80fd5b81518015158114611666575f80fdfea164736f6c6343000814000a",
        "linkReferences": {}
    },
    "methodIdentifiers": {
        "addToWhitelist(address)": "e43252d7",
        "allowance(address,address)": "dd62ed3e",
        "approve(address,uint256)": "095ea7b3",
        "balanceOf(address)": "70a08231",
        "batchTransfer(address[],uint256[])": "88d695b2",
        "burn(uint256)": "42966c68",
        "contractInfo()": "15c43aaf",
        "decimals()": "313ce567",
        "emergencyExtract(address,uint256)": "be67cdf2",
        "getMaxBatchSize()": "e7c00f6e",
        "isUpgradable()": "5479d940",
        "isWhitelisted(address)": "3af32abf",
        "mint(address,uint256)": "40c10f19",
        "name()": "06fdde03",
        "owner()": "8da5cb5b",
        "pause()": "8456cb59",
        "paused()": "5c975abb",
        "removeFromWhitelist(address)": "8ab1d681",
        "renounceOwnership()": "715018a6",
        "symbol()": "95d89b41",
        "totalSupply()": "18160ddd",
        "transfer(address,uint256)": "a9059cbb",
        "transferFrom(address,address,uint256)": "23b872dd",
        "transferOwnership(address)": "f2fde38b",
        "unpause()": "3f4ba83a",
        "version()": "54fd4d50"
    },
    "id": 29
}